:100000000C9435000C945D000C945D000C945D0024
:100010000C945D000C945D000C945D000C945D00EC
:100020000C945D000C945D000C945D000C945D00DC
:100030000C945D000C945D000C945D000C945D00CC
:100040000C94F6000C945D000C94D3030C942704DC
:100050000C945D000C940E020C945D000C945D00F9
:100060000C945D000C945D00DF0A11241FBECFEFDD
:10007000D8E0DEBFCDBF11E0A0E0B1E0ECE4F7E1F5
:1000800002C005900D92A033B107D9F722E0A0E39A
:10009000B1E001C01D92A830B207E1F710E0CAE656
:1000A000D0E004C02297FE010E94910BC836D10710
:1000B000C9F70E94DA0A0C94A40B0C9400008AE0A1
:1000C0008093810010928B0010928A00229A2A98C5
:1000D0000895109200021092FF01E0E8F0E0108213
:1000E0001092810080818F7E8083089583EF8093BA
:1000F000B00084BD82E08093B10085BD1092B40051
:100100001092B30018BC17BCEEE6F0E0808181606D
:1001100080838AB188668AB9239A5D985E985B98D5
:100120002B98089514BC1092B00015BC1092B10029
:10013000089597FF05C091958195910921E001C02F
:1001400020E08F3F910519F014F08FEF90E022230B
:1001500019F018BC87BD089588BD17BC089597FF96
:1001600005C091958195910921E001C020E08F3F64
:10017000910519F014F08FEF90E0222329F01092EE
:10018000B4008093B30008958093B4001092B3003C
:1001900008959093F6018093F501209101012223A7
:1001A00021F081E08093EE0108950C94AF009093CC
:1001B000F4018093F30120910101222321F081E0D9
:1001C0008093ED0108950C949900882319F0CB01D8
:1001D0000C94AF00CB010C949900E82FF0E0EE0FE7
:1001E000FF1FED50FE4F8081918108951F920F9265
:1001F0000FB60F9211240F931F932F933F934F939A
:100200005F936F937F938F939F93AF93BF93CF939E
:10021000DF93EF93FF938091EB018F5F8093EB016E
:100220008A3009F0AFC01092EB018091E701909104
:10023000E801A091E901B091EA010196A11DB11D6B
:100240008093E7019093E801A093E901B093EA015C
:1002500080910002882399F18091FD019091FE0127
:100260008F3F2FEF920759F101979093FE018093F2
:10027000FD01892B21F58091FF012091F801882350
:1002800009F474C08091FB019091FC01009711F476
:100290008FEF9FEF9093FE018093FD01809180008E
:1002A0008F7E80938000209389008091F701809356
:1002B00088008091FF0191E089278093FF01809160
:1002C000EC0181115FC081E08093EC01C0E0D0E0DF
:1002D0008C2F9E0123513E4FF90190819923F1F11A
:1002E000AE01440F551FDA01AD50BE4F0D911C9168
:1002F0001197FA01E151FE4F6081718106171707CE
:1003000019F4F90110822AC06D917C91208131810C
:10031000E1E090E06217730709F4E0E02E2F392F37
:10032000FA01ED50FE4F0190F081E02DDA01A1516C
:10033000BE4F6D917C91E617F7071CF4319521951E
:100340003109FA01E151FE4F40815181420F531FA3
:1003500051834083608171810E94E5002196C23003
:10036000D10509F0B5CF1092EC010CC08091F901D4
:100370009091FA019093FE018093FD01809180009D
:1003800080618FCFFF91EF91DF91CF91BF91AF91BE
:100390009F918F917F916F915F914F913F912F919D
:1003A0001F910F910F900FBE0F901F90189595B150
:1003B000282F217030E0220F331F482F467068E04D
:1003C000469FA0011124242B9D7C292B25B99BB18C
:1003D00088708295807F9F77892B8BB95C9A81E0AA
:1003E00090E00E9431085C9881E090E00C94310824
:1003F000F8946091E7017091E8018091E901909192
:10040000EA0178940895F8941092E7011092E801B7
:100410001092E9011092EA01789408951F920F92C8
:100420000FB60F9211242F933F934F935F936F93C7
:100430007F938F939F93AF93BF93EF93FF9380919D
:100440000702882371F1809178002091790090E073
:10045000922BE091060221E02E0F20930602F0E09D
:10046000EE0FFF1FE752FE4F91838083273081F408
:100470001092060220910102222331F08F3822E0EF
:10048000920710F060E02DC020910102222329F193
:10049000E0910602F0E0EA5FFE4F80818064809385
:1004A0007C008091070291E0892780930702809168
:1004B0007A00806480937A00FF91EF91BF91AF91B1
:1004C0009F918F917F916F915F914F913F912F916C
:1004D0000F900FBE0F901F9018958E389240C0F667
:1004E00061E087EF91E00E94FA07D2CF80E090E0D0
:1004F00040E054E09C01220F331FF901EB53FE4F03
:1005000011821082F901E153FE4F5183408301961D
:100510008530910579F70895CF92DF92EF92FF929F
:100520000F931F93CF93DF93CDB7DEB764970FB6CA
:10053000F894DEBF0FBECDBFD12CFE013B967F01EC
:100540008E010F5F1F4FC12C60E08C2D0E94470869
:10055000DD2069F0F70120813181281739073CF04F
:10056000F801208131818217930734F008C0F70128
:1005700091838083D110F4CFF80191838083C39459
:100580000E5F1F4FF2E0EF0EF11C85E0C812DCCFCA
:10059000D3949AE0D912D1CFCE010B967C01DE0123
:1005A000119680E090E06D917D919C01220F331FA8
:1005B000A9014B535E4FFA010081118106171707FD
:1005C00014F471836083F701419151917F012153AC
:1005D0003E4FF901608171814617570714F451832A
:1005E0004083019685309105F1F664960FB6F89434
:1005F000DEBF0FBECDBFDF91CF911F910F91FF9056
:10060000EF90DF90CF900895CF930E947602CCEECA
:10061000C83238F088E290E00E94D70088ED9FEF62
:1006200006C088ED9FEF0E94D70088E290E00E940C
:10063000C9000E948C0284E190E00E943908CF5FDB
:10064000CC3331F780E090E00E94D70080E090E06A
:10065000CF910C94C9005F926F927F928F929F927C
:10066000AF92BF92CF92DF92EF92FF920F931F93C0
:10067000CF93DF93582E812C912C5401C0E0D0E011
:10068000C12CD12C7601712C612C00E014E061E0CA
:10069000872D0E944708FC01552021F0C8018E1BC0
:1006A0009F0BFC01E93CF10524F4E333F10574F000
:1006B00002C066246394DF01A50194010E94870BA8
:1006C000C60ED71EE81EF91ECE0FDF1F739494E0EE
:1006D000990EA11CB11C25E07212D9CF61100AC07D
:1006E00080910402909105028115984084F480E085
:1006F00090E00FC09E0140E050E0C701B6010E94AB
:10070000340B3093050220930402C90102C080E03B
:1007100090E1DF91CF911F910F91FF90EF90DF90CB
:10072000CF90BF90AF909F908F907F906F905F9091
:1007300008958FE380937E008FED80937A0010926E
:100740007B0080E480937C0088B18F6388B980E06F
:1007500094E09093DA018093D9019093DC01809327
:10076000DB019093DE018093DD019093E0018093A3
:10077000DF019093E2018093E1019093E401809383
:10078000E3019093E6018093E5010C9476021092C8
:100790007A00089584EC91E00C94110961E084ECF6
:1007A00091E00C940D091F920F920FB60F92112435
:1007B0002F933F934F935F936F937F938F939F9369
:1007C000AF93BF93EF93FF939091C6008091030284
:1007D000E82FF0E0EE5FFE4F2081921314C08F5F90
:1007E00080930302843089F40E94920061E084ECDB
:1007F00091E00E940D09F89488E18093600088E000
:1008000080936000FFCF10920302E091610181E0CC
:100810008E0F803209F480E020916001821731F060
:10082000F0E0E05CFE4F908380936101FF91EF91D7
:10083000BF91AF919F918F917F916F915F914F91F8
:100840003F912F910F900FBE0F901F9018951F9200
:100850000F920FB60F9211248F939F93EF93FF93F4
:100860009091C2018091C301981789F0E091C20173
:10087000F0E0EE59FE4F90818091C2018F5F80368B
:1008800009F480E08093C2019093C60005C0809176
:10089000C1008F7D8093C100FF91EF919F918F9157
:1008A0000F900FBE0F901F90189584B18D7C84B966
:1008B00085B1826385B9089585B18D7C85B9089528
:1008C0000E945F000E9476000E9499030E94CA0362
:1008D00082E08093C00086E08093C2001092C50041
:1008E00085E18093C40088E98093C1000C9455048D
:1008F0000E9469000E94920010927A000E94CE032A
:100900001092C1001092C0001092C2000C945C04BE
:1009100090916001809161019817D9F0E091600198
:10092000F0E0E05CFE4F4081809160018F5F80329B
:1009300009F480E0809360018091330181110BC044
:1009400080913201811107C04F3F29F481E08093EB
:10095000330180E0089580913301882309F141300B
:10096000F9F44093320110923301809132018F5F8C
:100970008093320180913201843058F380913401A8
:10098000882339F32091320130E08091350190E0E5
:10099000049628173907E9F61092320181E008958C
:1009A00080913201823021F4415040933501DDCFF6
:1009B00080913201833019F440933401D6CF809175
:1009C0003201843030F2209132018091350190E083
:1009D000039630E0821793070CF4BBCFE09132010D
:1009E000F0E0EE5CFE4F4083C0CF97FF03C09195CF
:1009F000819591090895492F441F4427441FBC0144
:100A000097FF03C071956195710920E030E0EAE03D
:100A1000F0E0842F820F2F5F3F4F6A3071052CF07A
:100A2000CB01BF010E94200BF4CF8F5F08956F921E
:100A30007F929F92AF92BF92CF92DF92EF92FF92FE
:100A40000F931F93CF93DF9300D0CDB7DEB78C0108
:100A5000612C712C20E0C12CD12C760198EF992EBD
:100A600044E0F301EE0FFF1F4615B0F0E153FE4FD7
:100A7000808191819770AA2797FDA095BA2F022EA9
:100A800004C0880F991FAA1FBB1F0A94D2F7C82A57
:100A9000D92AEA2AFB2A15C0E554FE4F408151812C
:100AA0005770662757FD6095762F022E04C0440FBD
:100AB000551F661F771F0A94D2F7C42AD52AE62A43
:100AC000F72A3BE0320FC8015C01EFEFAE1ABE0A15
:100AD0006C2D2A8339830E94B309CD2CDE2CEF2C98
:100AE000FF24E7FCFA94398138502A81383010F01D
:100AF000C501EACF2D5F322F369536953695832F77
:100B000090E00196080F191F399D200D1124FFEF69
:100B10006F1A7F0A4AE06416710409F0A1CF2223FC
:100B200099F06C2DC8010F900F90DF91CF911F911C
:100B30000F91FF90EF90DF90CF90BF90AF909F907C
:100B40007F906F900C94B3090F900F90DF91CF912D
:100B50001F910F91FF90EF90DF90CF90BF90AF90DB
:100B60009F907F906F900895CF92DF92EF92FF92C7
:100B70000F931F93CF93DF9300E010E0C12CD12C93
:100B80007601EC0121960E94C00990E0A0E0B0E05F
:100B9000012E04C0880F991FAA1FBB1F0A94D2F709
:100BA000C82AD92AEA2AFB2A185F1B30C8F0E02F8E
:100BB000F0E0C6019770EE0FFF1F053018F4E15307
:100BC000FE4F02C0E554FE4F918380832BE0F594E5
:100BD000E794D794C7942A95D1F71B500F5FE5CFC0
:100BE0000A3010F4CE01CDCFDF91CF911F910F913C
:100BF000FF90EF90DF90CF9008950F931F93CF93C6
:100C0000DF93EC018881843009F05CC08A819927E8
:100C100087FD9095982F88272B81822B0E94C900F1
:100C20008C81992787FD9095982F88272D81822B7D
:100C30000E94D7000C81112707FD1095102F002767
:100C40008D81082B41E060E084EC91E00E94510925
:100C500040E0B80184EC91E00E94170A8C8199274A
:100C600087FD9095982F88272D81822B0E94FB0469
:100C7000182F2A81332727FD3095322F22278B8189
:100C8000A901482BCA010E94FB04810F18E0181B20
:100C9000112339F060E284EC91E00E946C0911505C
:100CA000F7CF6A81772767FD7095762F66278B814E
:100CB000682B40E084EC91E0DF91CF911F910F9180
:100CC0000C94170ADF91CF911F910F910895CF9344
:100CD0001C991FC085E090E00E9439081C9917C03C
:100CE00080E10E94AD09C091000181E0C827C09356
:100CF0000001C093010140E067E084EC91E00E94B4
:100D0000510940E06C2F84EC91E00E948A0A81E056
:100D100030C0199910C085E090E00E9439081999F7
:100D2000F6CF82E00E94AD098091310191E08927E0
:100D300080933101ECCF1D991BC085E090E00E94AB
:100D400039081D9915C080E20E94AD0984EF91E039
:100D50000E9439080E94040382E090E00E94170577
:100D60006AE281E090E00E94B30981E08093300163
:100D700080E0CF910895CF93DF93CDB7DEB7AC97E6
:100D80000FB6F894DEBF0FBECDBF41E060E084EC4B
:100D900091E00E94510965E271E084EC91E00E94CB
:100DA0009B0941E067E084EC91E00E94510965E213
:100DB00071E084EC91E00E949B0940E06DE071E0FD
:100DC00084EC91E00E94700941E06EE071E084ECF7
:100DD00091E00E94700942E06FE071E084EC91E0E4
:100DE0000E94700943E061E171E084EC91E00E94AF
:100DF000700944E062E171E084EC91E00E947009C6
:100E000045E063E171E084EC91E00E94700981E0CB
:100E100090E00E94C0098A3239F482E090E00E949A
:100E2000B40581E08093300119A21AA204E610E013
:100E300080E1B82E91E1A92E24E0922E37E6E32E30
:100E4000F12C4AE0C42ED12C0115110509F0BFC0C8
:100E50009091C2018091C3019813FACF8091310122
:100E6000811142C00E9486088C0140E060E084EC61
:100E700091E00E94510901151105C9F020E0C80157
:100E8000B6010E940C0B11E0120FE1E0F0E0EC0F54
:100E9000FD1FE20FF11D005D8AE0689F001911241B
:100EA00000836115710531F0212F8B01E8CF80E3BC
:100EB000898311E0112351F0FE01E10FF11D6081E2
:100EC00084EC91E00E946C091150F4CF67E271E06C
:100ED00084EC91E00E949B0940E06091000184EC69
:100EE00091E00E948A0A20C040E060E084EC91E03A
:100EF0000E94510910E060913001812F0E94470843
:100F0000B7010E94200B655E7E4FFB01608184EC7F
:100F100091E00E946C091F5F153069F76BE271E088
:100F200084EC91E00E949B09B9A21AA20E94860853
:100F30002AA1E3E2F0E0EC0FFD1FE20FF11D908328
:100F400092E0920F9AA32F5FE3E2F0E0EC0FFD1F17
:100F5000E20FF11D8083CE0181960E94EC09A9A2C7
:100F60008091F3019091F4019BA38CA38091F501F2
:100F70009091F6019DA39AA28EA3CE0181960E9424
:100F8000EC0982E189A31AA210E060913001812F5F
:100F90000E9447082AA1E3E2F0E0EC0FFD1FE20FF8
:100FA000F11D908392E0920F9AA32F5FE3E2F0E0AD
:100FB000EC0FFD1FE20FF11D80831F5F153029F735
:100FC000CE0181960E94EC0904E610E002C00150B7
:100FD00011090E948804882321F084E391E00E9493
:100FE000FD050E94670681112FCF88EE93E00E94D5
:100FF00031082ACFFC018385882391F182858613ED
:1010000001C0089562876623F9F0108688EE93E0A8
:101010009383828324EF31E03583248320813181DF
:10102000232BF1F021E021872087978386838AE0B4
:1010300080938100818180938900808180938800E2
:1010400080918000806109C0118610861092800016
:1010500010928100809180008F7E8093800008959F
:1010600008956F9364E06A95F1F76F910197C9F75E
:101070000895CF93DF93EC01209731F088EE93E051
:101080000E9431082197F8CFDF91CF910895F8940D
:1010900090E0880F991FFC01E752FE4F20813181BB
:1010A0002115344021F478940000F894F7CF208182
:1010B000318178940000662339F1FC01EB53FE4F37
:1010C00040815181FC01E153FE4F80819181481B99
:1010D000590B81F080819181D901A81BB90B28EEB1
:1010E00033E00E94750B9A01442737FD4095542F39
:1010F0000E94560B213084E0380714F020E034E0E1
:1011000037FF02C020E030E0C901089560E085E0CB
:101110000E94470828E833E1DC010E94750B61500A
:101120007E4F8F4F9F4F2FEF33E040E050E00E9403
:10113000340BA3E0B0E00E947C0B6F5F7F4F8F4FBA
:101140009F4F9695879577956795CB0108950F9357
:101150001F93CF93DF931AB157985A98289AC4ECEB
:10116000D9E081E090E00E9431085C9A81E090E053
:101170000E94310809B15C9881E090E00E9431083A
:101180005C9A81E090E00E9431085C9807FF03C000
:101190002197209731F71AB9DF91CF911F910F91C5
:1011A0000895DF92EF92FF920F931F93CF93DF93F7
:1011B00000D0CDB7DEB7E62E2A8349830E94A70868
:1011C00014B1D5B0FAB00BB1289849812A814423D3
:1011D00011F05A9A01C05A9894B1926394B9579AEF
:1011E000213029F08E2D82958F700E94D7018E2D8F
:1011F0008F700E94D701FAB80BB914B9D5B80F9007
:101200000F90DF91CF911F910F91FF90EF90DF90A2
:10121000089521E040E00C94D10822E040E00C94D5
:10122000D108CF93DF93EC01529A209A549A8EE121
:1012300090E00E94390863E0CE010E94090986E02F
:1012400090E00E94390863E0CE010E94090982E023
:1012500090E00E94390863E0CE010E94090982E013
:1012600090E00E94390862E0CE010E94090982E004
:1012700090E00E94390868E2CE010E940D0968E002
:10128000CE010E940D0961E0CE010E940D0966E0C9
:10129000CE010E940D096CE0CE01DF91CF910C943C
:1012A0000D09CF93DF9300D000D0CDB7DEB720E893
:1012B000298320EC2A8324E92B8324ED2C83FE014F
:1012C000E40FF11D2181620F0F900F900F900F908E
:1012D000DF91CF910C940D0922E041E00C94D108EC
:1012E000CF92DF92FF920F931F93CF93DF931F92C2
:1012F000CDB7DEB78C01440F440F440F6B01F12CC6
:101300006F2D640F6064C80149830E940D09F601C6
:1013100061916F01C8010E946C09F3944981F8E062
:10132000FF12EECF0F90DF91CF911F910F91FF90A1
:10133000DF90CF9008950F931F93CF93DF938C018D
:10134000EB016991662321F0C8010E946C09F9CF75
:10135000DF91CF911F910F91089593B19823E9F3F5
:1013600093B18923089592BD81BD60BD84E08FBB98
:1013700082E08FBBF999FECF81B58F5F81BD089563
:1013800092BD81BD81E08FBB80B591B59F5F91BD5E
:101390000895FC01ED57FF4FDC01AE57BF4F208190
:1013A0002F5F203609F420E03C912317C1F33081F0
:1013B00021E0230F203609F420E04C91241731F06E
:1013C000DC01A30FB11D92966C9320838091C10024
:1013D00080628093C10008951F93CF93DF93EC0147
:1013E0006FEF80E491E00E94C90961E080E491E040
:1013F0000E94C90969816F5F80E491E00E94C90978
:10140000688180E491E00E94C90910E08981181781
:1014100050F4FE01E10FF11D628180E491E00E9431
:10142000C9091F5FF3CFDF91CF911F910895CF922C
:10143000DF92EF92FF920F931F93CF93DF93CDB77D
:10144000DEB7A1970FB6F894DEBF0FBECDBF8C01FB
:101450009B0161157105B1F137FF04C0662777273D
:10146000621B730BD62E972FE12CEAE0F0E066EFBB
:10147000C62E8D2DBF010E94200BFF24F394FE0C7D
:1014800080E38D0DC69E800D1124A1E0B0E0AC0F6D
:10149000BD1FAE0DB11D8C936115710521F0D62EC7
:1014A000972FEF2CE6CF8F2D37FF10C052E0F52E8F
:1014B000FE0CE1E0F0E0EC0FFD1FE80FF11D8DE206
:1014C000808304C080E38983FF24F394F41640F4FE
:1014D00060E2C80149A30E946C0949A14150F6CFBE
:1014E000FF2049F0FE01EF0DF11D6081C8010E944F
:1014F0006C09FA94F5CFA1960FB6F894DEBF0FBE33
:10150000CDBFDF91CF911F910F91FF90EF90DF90B2
:10151000CF900895FF920F931F93CF93DF93CDB792
:10152000DEB7A1970FB6F894DEBF0FBECDBF8C011A
:10153000262F6623D1F030E05AE0A6EF822F652FE8
:101540000E94000BFF24F394F30EE1E0F0E0EC0FB7
:10155000FD1FE30FF11D205D8A9F200D11242083C4
:10156000882339F0282F3F2DE9CF80E38983FF249A
:10157000F394F41640F460E2C80149A30E946C0998
:1015800049A14150F6CFFF2049F0FE01EF0DF11DBA
:101590006081C8010E946C09FA94F5CFA1960FB63C
:1015A000F894DEBF0FBECDBFDF91CF911F910F9199
:1015B000FF9008950E94600478940E94BB061092E8
:1015C0000002109202021092FF0184EC99E09093C5
:1015D000F8018093F7011092FC011092FB01109228
:1015E000FA011092F90110926001109261011092BB
:1015F000C2011092C3011092340110923501089576
:10160000991B79E004C0991F961708F0961B881F54
:101610007A95C9F780950895AA1BBB1B51E107C0B5
:10162000AA1FBB1FA617B70710F0A61BB70B881F72
:10163000991F5A95A9F780959095BC01CD01089501
:1016400097FB072E16F4009407D077FD09D00E946F
:101650000C0B07FC05D03EF4909581959F4F0895A3
:10166000709561957F4F0895A1E21A2EAA1BBB1BAE
:10167000FD010DC0AA1FBB1FEE1FFF1FA217B3075E
:10168000E407F50720F0A21BB30BE40BF50B661F74
:10169000771F881F991F1A9469F760957095809538
:1016A00090959B01AC01BD01CF010895052E97FBDC
:1016B0001EF400940E946D0B57FD07D00E94340B5E
:1016C00007FC03D04EF40C946D0B5095409530956B
:1016D00021953F4F4F4F5F4F08959095809570959E
:1016E00061957F4F8F4F9F4F08950E94950BB7FFD5
:1016F0000895821B930B08950E94950BA59F900D52
:10170000B49F900DA49F800D911D11240895B7FFE3
:101710000C947C0B0E947C0B821B930B0895EE0FA4
:10172000FF1F0590F491E02D0994A29FB001B39F93
:10173000C001A39F700D811D1124911DB29F700DDA
:0C174000811D1124911D0895F894FFCF25
:10174C000101747E7A3300010203040607000000D5
:10175C00000000001F1F1F1F1F1F1F200000010281
:10176C0003030405FF30006D5620002020200000EC
:00000001FF
