:100000000C9435000C945D000C945D000C945D0024
:100010000C945D000C945D000C945D000C945D00EC
:100020000C945D000C945D000C945D000C94E50153
:100030000C945D000C945D000C945D000C945D00CC
:100040000C945D000C945D000C944C080C949E087C
:100050000C945D000C947D020C945D000C945D008A
:100060000C945D000C945D00DD0B11241FBECFEFDE
:10007000D8E0DEBFCDBF11E0A0E0B1E0EEE2F9E1F3
:1000800002C005900D92A433B107D9F712E0A4E3A2
:10009000B1E001C01D92AB30B107E1F710E0CAE654
:1000A000D0E004C02297FE010E94910CC836D1070F
:1000B000C9F70E94D20B0C94950C0C940000E0EB55
:1000C000F0E083EF8083808184BDE1EBF0E082E0AB
:1000D0008083808185BDE4EBF0E010828081E3EBDA
:1000E000F0E08083808188BD88B587BD8AB188664D
:1000F0008AB9239A5D985E985B982B98089514BCF2
:100100001092B00015BC1092B100089597FF05C081
:10011000909581959F4F21E001C020E08F3F910590
:1001200019F014F08FEF90E0222319F018BC87BD6E
:10013000089588BD17BC089597FF05C090958195D7
:100140009F4F21E001C020E08F3F910519F014F08E
:100150008FEF90E0222329F01092B4008093B30037
:1001600008958093B4001092B300089520910E0179
:10017000222341F0909337018093360181E08093F0
:100180003D0108950E949C00089520910E012223B4
:1001900041F0909335018093340181E080933C01DC
:1001A00008950E9486000895882321F0CB010E94C3
:1001B0009C000895CB010E9486000895CF93DF93A1
:1001C000EB010E94C500CE010E94B600DF91CF91E5
:1001D0000895FC01808191810097E1F081E08187A1
:1001E0008185808782819381009729F024813581E0
:1001F0002115310511F48FEF9FEF9783868380914E
:100200008000806180938000818180938B00808159
:1002100080938A000895FC01118681858087E0E83B
:10022000F0E080818F7E808310928B0010928A0094
:100230000895FC018185882389F1868197812FEFBC
:100240008F3F920731F508958085882371F084816E
:10025000958197838683809180008F7E8093800034
:1002600010928B0010928A000FC082819381978335
:10027000868380918000806180938000818180935B
:100280008B00808180938A00808591E08927808718
:1002900008950197978386830097B1F20895FC0132
:1002A00083858823C9F08285861791F40895108686
:1002B00088EE93E09383828384EF91E09583848337
:1002C000CF010E94E9000895CF010E940B0108951B
:1002D00062876623C9F3EBCF08958AE0809381009B
:1002E00010928B0010928A00229A2A9808958FE328
:1002F00091E00E940B0108956F9364E06A95F1F715
:100300006F910197C9F7089565B190E0AC01417014
:100310005070440F551F9C012670307053E0220F1F
:10032000331F5A95E1F7242B6D7C262B25B92BB171
:100330008870907034E0880F991F3A95E1F72F7715
:10034000282B2BB95C9A81E090E00E947C015C989C
:1003500081E090E00E947C010895CF93DF93EC014F
:1003600005C088EE93E00E947C0121972097C9F791
:10037000DF91CF910895F89460914B0170914C01F9
:1003800080914D0190914E0178940895F8941092C7
:100390004B0110924C0110924D0110924E01789435
:1003A00008958AE08093810084E08093890082EE42
:1003B00080938800EFE6F0E080818260808308957A
:1003C000109280001092810008951F920F920FB634
:1003D0000F9211242F933F934F935F936F937F93CB
:1003E0008F939F93AF93BF93CF93DF93EF93FF933D
:1003F00080914B0190914C01A0914D01B0914E0123
:100400000196A11DB11D80934B0190934C01A093C7
:100410004D01B0934E018FE391E00E94190180914C
:100420003E01882309F056C081E080933E01C0E080
:10043000D0E08C2F9E01245C3E4FF90190819923DE
:1004400009F441C0FE01EE0FFF1FDF01AC5CBE4F9F
:100450006D917C911197E85CFE4F4081518164174A
:10046000750719F4F90110822EC06D917C911197D6
:100470004081518121E030E06417750711F420E0DC
:1004800030E0AE01440F551FFA01EC5CFE4F608175
:100490007181485C5E4FFA01408151816417750794
:1004A0001CF4309521953F4FFE01EE0FFF1FE85CD5
:1004B000FE4F40815181420F531F51834083608121
:1004C00071810E94D4002196C230D10509F0B1CFCC
:1004D00010923E01FF91EF91DF91CF91BF91AF91CB
:1004E0009F918F917F916F915F914F913F912F914C
:1004F0000F900FBE0F901F9018951F920F920FB67E
:100500000F9211242F933F934F935F936F937F9399
:100510008F939F93AF93BF93EF93FF9380910902C3
:100520008823C1F18091780090917900392F20E0E3
:1005300090E0822B932B20910A02E22FF0E0EE0F45
:10054000FF1FE15BFE4F918380832F5F20930A02A0
:100550002730B9F410920A02209149012223B1F107
:1005600022E08F38920790F18FE391E060E007C0BE
:1005700022E08E38920728F48FE391E061E00E9438
:100580004F01E0910A02F0E0E45DFE4F808180645B
:1005900080937C008091090291E089278093090271
:1005A00080917A00806480937A00FF91EF91BF91EF
:1005B000AF919F918F917F916F915F914F913F91FB
:1005C0002F910F900FBE0F901F9018952091490109
:1005D000222371F2D6CFCF93DF93F89490E0880F67
:1005E000991FFC01E15BFE4F03C078940000F89472
:1005F0002081318144E020303407B9F340815181BA
:100600009A0178940000662379F1FC01E959FE4FC4
:10061000C081D181FC01E35AFE4F80819181C81BCA
:10062000D90BB9F080819181481B590BBA018827F9
:1006300077FD8095982F28EE33E040E050E00E944F
:10064000000C9E01442737FD4095542F0E94740CE6
:1006500001C09A0184E02130380714F020E034E032
:1006600037FF02C020E030E0C901DF91CF9108954B
:10067000109268011092670180E094E090935E010F
:1006800080935D0110926A0110926901909360015C
:1006900080935F0110926C0110926B019093620144
:1006A0008093610110926E0110926D01909364012C
:1006B000809363011092700110926F019093660114
:1006C0008093650108956F927F928F929F92AF926F
:1006D000BF92CF92DF92EF92FF920F931F93DF931F
:1006E000CF93CDB7DEB766970FB6F894DEBF0FBED7
:1006F000CDBF40E07BE0C72ED12CCC0EDD1E5E01CD
:100700000894A11CB11C2AC0852F60E04E8B5D8B24
:100710000E94EB024E895D89442331F0F80120816B
:100720003181281739072CF4F80191838083442301
:1007300031F0F70120813181821793071CF4F70112
:10074000918380835F5F82E090E0E80EF91E0E5F88
:100750001F4F5530C9F64F5F4A3031F04601350121
:100760008501760150E0D0CF80E090E0F401219146
:1007700031914F01FC01EE0FFF1FE959FE4F4081FF
:1007800051814217530714F431832083F3012191DF
:1007900031913F01FC01EE0FFF1FE35AFE4F4081F4
:1007A00051812417350714F4318320830196853055
:1007B0009105E1F666960FB6F894DEBF0FBECDBF89
:1007C000CF91DF911F910F91FF90EF90DF90CF902D
:1007D000BF90AF909F908F907F906F900895CF9330
:1007E0000E943803CCEEC83228F088E290E068ED31
:1007F0007FEF04C088ED9FEF68E270E00E94DE00AA
:100800000E94630384E190E00E94AD01CF5FCC338E
:1008100051F780E090E060E070E00E94DE00CF9150
:1008200008953F924F925F926F927F928F929F9224
:10083000AF92BF92CF92DF92EF92FF920F931F93EE
:10084000CF93DF93382E66247724430100E010E035
:10085000AA24BB246501FF24EE24412CE4E05E2E93
:100860008F2D61E00E94EB02EC01332021F0C201E8
:100870008C1B9D0BEC01C93CD10524F4C333D1057D
:1008800094F002C0EE24E394BE01882777FD8095A2
:10089000982FA40193010E94000CA60EB71EC81E3B
:1008A000D91E0C0F1D1FF39480E094E0A0E0B0E08F
:1008B000680E791E8A1E9B1E9F2D953089F6EE20AC
:1008C00059F48091070290910802A8E080309A07BD
:1008D00084F460E070E00FC0980140E050E0C60191
:1008E000B5010E94520CB90130930802209307020F
:1008F00002C060E070E1CB01DF91CF911F910F91B9
:10090000FF90EF90DF90CF90BF90AF909F908F902F
:100910007F906F905F904F903F900895EF92FF927D
:100920000F931F9385E060E00E94EB029C01B901E8
:10093000882777FD8095982F28E833E140E050E044
:100940000E94000C61507E4F8F4F9F4F2FEF33E07E
:1009500040E050E00E94520C79018A01EE0CFF1C2D
:10096000001F111FE20EF31E041F151F0894E11C47
:10097000F11C011D111D16950795F794E794C70109
:100980001F910F91FF90EF9008958FE380937E0069
:100990008FED80937A0010927B0080E480937C003E
:1009A00088B18F6388B980E094E090935001809380
:1009B0004F01909352018093510190935401809381
:1009C0005301909356018093550190935801809361
:1009D000570190935A018093590190935C01809341
:1009E0005B010E943803089510927A000895CF9217
:1009F000DF92EF92FF920F931F93DF93CF9300D07C
:100A0000CDB7DEB7162F0AB157985A98289ACC243A
:100A1000DD2481E090E02A8349830E947C015C9A76
:100A200081E090E00E947C01F9B05C9881E090E068
:100A30000E947C015C9A81E090E00E947C015C98BD
:100A40002A814981F7FE2BC084E090E0C80ED91EB0
:100A500090E1C91697E2D906E1F621C05A9A01C081
:100A60005A9884B1826384B9579A213029F0812F32
:100A700082958F700E948401812F8F700E94840163
:100A8000FAB8EBB8C4B805B90F900F90CF91DF91C9
:100A90001F910F91FF90EF90DF90CF9008950AB9CA
:100AA000C4B005B1FAB0EBB028984423B9F6D8CF5A
:100AB00040E022E00E94F7040895DF93CF9300D036
:100AC00000D0CDB7DEB720E8298320EC2A8324E9C3
:100AD0002B8324ED2C83FE01E40FF11D2181620F95
:100AE0000E9458050F900F900F900F90CF91DF91BB
:100AF000089561E00E945805089541E022E00E94B7
:100B0000F7040895EF92FF920F931F93DF93CF9313
:100B100000D0CDB7DEB77C01440F440F440F062F41
:100B2000172F20E0622F640F6064C7012A83498376
:100B30000E945805F80161918F01C7010E947D054F
:100B40002A812F5F4981283069F70F900F90CF914C
:100B5000DF911F910F91FF90EF9008950F931F93D6
:100B6000CF93DF93EC01062F172F03C0CE010E9415
:100B70007D05F80161918F016623C1F7DF91CF9167
:100B80001F910F9108950F931F93CF93DF93EC0163
:100B90008B01642F422F0E945D05CE01B8010E9497
:100BA000AE05DF91CF911F910F91089540E021E0B4
:100BB0000E94F7040895CF93DF93EC01529A209A94
:100BC000549A8EE190E00E94AD01CE0163E00E9454
:100BD000D60586E090E00E94AD01CE0163E00E9460
:100BE000D60582E090E00E94AD01CE0163E00E9454
:100BF000D60582E090E00E94AD01CE0162E00E9445
:100C0000D60582E090E00E94AD01CE0168E20E942C
:100C10005805CE0168E00E945805CE0161E00E94AF
:100C20005805CE0166E00E945805CE016CE00E9496
:100C30005805DF91CF91089581E791E00E94DB058F
:100C4000089581E791E00E94790508950E947F0050
:100C500081E791E00E947905F89488E18093600033
:100C600088E080936000FFCF82E08093C00086E040
:100C70008093C2001092C50080E48093C40088E98C
:100C80008093C10008951092C1001092C00010928C
:100C9000C200089584B18D7C84B985B1826385B921
:100CA000089585B18D7C85B9089593B19823E9F3B2
:100CB00093B1892308950E94D1010E946D010E9481
:100CC0005F000E94C5040E941C060E9434060E9418
:100CD0004A0608950E94E0010E9477010E947F0069
:100CE00010927A000E9421060E9443060E9451063B
:100CF0000895282F392F37FF03C0309521953F4F96
:100D0000C9010895E92FEE1FEE27EE1F682F792FF6
:100D100077FF03C0709561957F4F2AE030E004C0F3
:100D2000CB01B9010E943F0CEF5F6A307105C4F737
:100D30008E2F0895AF92BF92CF92DF92EF92FF92E3
:100D40000F931F93DF93CF93CDB7DEB7A1970FB665
:100D5000F894DEBF0FBECDBF7C019B01611571050C
:100D600069F1FB0177FF04C0EE27FF27E61BF70BB5
:100D7000DD240AE010E05E010894A11CB11CB6EF6E
:100D8000CB2E10C0CF01B8010E943F0CD501AD0D94
:100D9000B11DE05DC69E802D1124E80FEC93D39425
:100DA000E62FF72F1E161F066CF337FF13C0FE0148
:100DB000ED0DF11D8DE28183D3940CC080E3898316
:100DC000DD24D39407C0C70160E249A30E947D05DA
:100DD00049A14150D416B8F308C0FE01ED0DF11D34
:100DE000C70160810E947D05DA94DD20B1F7A196EC
:100DF0000FB6F894DEBF0FBECDBFCF91DF911F912C
:100E00000F91FF90EF90DF90CF90BF90AF9008953B
:100E10000F931F93CF93DF93EC018B01642F422F2D
:100E20000E945D05CE01B80140E00E949A06DF9164
:100E3000CF911F910F9108950F931F93CF93DF933D
:100E4000EC018881843009F05EC02A81332727FDB8
:100E50003095322F22278B8190E0822B932B0E949A
:100E6000B6002C81332727FD3095322F22278D8124
:100E700090E0822B932B0E94C5006C81772767FD41
:100E80007095762F66278D8190E0682B792B81E70E
:100E900091E040E021E00E9408072C81332727FDE4
:100EA0003095322F22278D8190E0822B932B0E9448
:100EB0008206082F4A81552747FD5095542F442715
:100EC0002B8130E0CA01822B932B0E948206182FBF
:100ED0001195101B185F06C081E791E060E20E9447
:100EE0007D0511501123C1F76A81772767FD709541
:100EF000762F66278B8190E0682B792B81E791E034
:100F000040E00E949A06DF91CF911F910F910895C2
:100F1000FF920F931F93DF93CF93CDB7DEB7A197C7
:100F20000FB6F894DEBF0FBECDBF8C016623D1F0A3
:100F3000562FFF24BAE09E012F5F3F4FA6EF01C05E
:100F4000582F852F6B2F0E941F0CF901EF0DF11DFB
:100F5000505D8A9F902D1124590F5083F39488235C
:100F600079F70CC080E38983FF24F39407C0C8019C
:100F700060E249A30E947D0549A14150F416B8F3EF
:100F800008C0FE01EF0DF11DC80160810E947D05C2
:100F9000FA94FF20B1F7A1960FB6F894DEBF0FBE0A
:100FA000CDBFCF91DF911F910F91FF9008951F93B7
:100FB000CF93DF93EC01162F642F422F0E945D0523
:100FC000CE01612F40E00E948807DF91CF911F91F1
:100FD000089583B184FD19C085E090E00E94AD01C1
:100FE00083B184FD3DC080E10E94550660910F01F0
:100FF00081E0682760930F0160930E0181E791E023
:1010000047E020E00E94D7072BC083B181FD11C0CB
:1010100085E090E00E94AD0183B181FD21C082E0B6
:101020000E9455068091040291E089278093040272
:1010300017C083B185FD16C085E090E00E94AD0128
:1010400083B185FD11C080E20E94550684EF91E0D6
:101050000E94AD010E94EF0381E08093050202C06F
:1010600081E0089580E0089580E00895FC0191A159
:10107000892F8F5F803209F480E020A1821739F038
:10108000DF01A90FB11D6C9381A381E0089580E079
:1010900008950E94360808951F920F920FB60F927E
:1010A00011242F933F934F935F936F937F938F936D
:1010B0009F93AF93BF93EF93FF93DF93CF930F92E1
:1010C000CDB7DEB76091C60080910602E82FF0E050
:1010D000E85DFE4F9081691751F48F5F809306029F
:1010E000843039F469830E942606698102C0109217
:1010F000060282E791E00E9449080F90CF91DF91AC
:10110000FF91EF91BF91AF919F918F917F916F91DF
:101110005F914F913F912F910F900FBE0F901F90B5
:101120001895FC01E05AFF4F20812F5F203609F40B
:1011300020E0805A9F4FFC01208308951F920F9258
:101140000FB60F9211242F933F934F935F936F939A
:101150007F938F939F93AF93BF93CF93EF93FF931F
:101160009091F4018091F501981769F0E091F401F4
:10117000F0E0EE58FE4FC2A184E991E00E94910890
:10118000C093C60005C08091C1008F7D8093C100CF
:10119000FF91EF91CF91BF91AF919F918F917F91EF
:1011A0006F915F914F913F912F910F900FBE0F90D4
:1011B0001F901895FC0180A18F5F803209F480E0B8
:1011C00080A30895CF9390919201809193019817F5
:1011D00009F45DC0E0919201F0E0EE58FE4FC0814D
:1011E00082E791E00E94DA0880910202882309F0E8
:1011F00051C080910302882309F04CC0CF3F09F011
:1012000049C081E08093020242C0C13009F047C06A
:10121000C0930302109202021FC0C150C093F70195
:101220001BC080910302833019F4C093F60114C0EF
:1012300080910302843058F1209103028091F701DC
:1012400090E0039630E0821793070CF1E0910302DF
:10125000F0E0EC50FE4FC083809103028F5F8093DB
:10126000030280910302843090F08091F60188237C
:1012700071F02091030230E08091F70190E0049634
:101280002817390721F41092030281E001C080E0A1
:10129000CF91089580910202882309F0B6CF809102
:1012A0000302823009F0BDCFB8CFEF92FF920F93C7
:1012B0001F93DF93CF93CDB7DEB7A1970FB6F89406
:1012C000DEBF0FBECDBF8C016115710501F1E62EA9
:1012D000972FFF242AE030E0FE01319602C0E62E6F
:1012E000972F8E2DB9010E942B0CDF01AF0DB11D80
:1012F0008E2D805D562F550F952F990F990F950FB5
:10130000891B8C93F3946115710549F70CC080E338
:101310008983FF24F39407C0C80160E249A30E94B7
:101320007D0549A14150F416B8F308C0FE01EF0D48
:10133000F11DC80160810E947D05FA94FF20B1F77C
:10134000A1960FB6F894DEBF0FBECDBFCF91DF914F
:101350001F910F91FF90EF9008950F931F93CF93DC
:10136000DF93EC018B01642F422F0E945D05CE01BB
:10137000B80140E00E945509DF91CF911F910F9174
:101380000895FC01EF59FF4F20812F5F203609F4AB
:1013900020E0805A9F4FFC01908181E0291380E07A
:1013A0000895FC01EF59FF4F3081232F2F5F203626
:1013B00009F420E0FC01E05AFF4F4081241751F06E
:1013C000FC01E30FF11D60838F599F4FFC012083C7
:1013D00081E0089580E00895DF92EF92FF920F93ED
:1013E0001F93DF93CF93CDB7DEB7A1970FB6F894D5
:1013F000DEBF0FBECDBF8C016115710501F1E62E78
:10140000972FDD242AE030E0FE01319602C0E62E5F
:10141000972F8E2DB9010E942B0CDF01AD0DB11D50
:101420008E2D805D562F550F952F990F990F950F83
:10143000891B8C93D3946115710549F70DC080E326
:101440008983DD24D39408C0C70160E249A30E94C8
:10145000D10949A1415005C062E2E62EF12CE00E0F
:10146000F11ED41688F309C0FE01ED0DF11DC8016F
:1014700060810E94D109DA9402C00E5D1F4FDD2009
:1014800099F78091C10080628093C100A1960FB648
:10149000F894DEBF0FBECDBFCF91DF911F910F91AA
:1014A000FF90EF90DF9008950F931F93CF93DF93FA
:1014B000C62FD72F8C010E5D1F4F03C0C8010E949D
:1014C000D10969916623D1F78091C1008062809330
:1014D000C100DF91CF911F910F910895AF92BF92FC
:1014E000CF92DF92EF92FF920F931F93DF93CF93F0
:1014F000CDB7DEB7A1970FB6F894DEBF0FBECDBF54
:101500006C019B016115710569F1FB0177FF04C056
:10151000EE27FF27E61BF70BFF240AE010E05E0131
:101520000894A11CB11C76EFE72E10C0CF01B801C2
:101530000E943F0CD501AF0DB11DE05DE69E802DF0
:101540001124E80FEC93F394E62FF72F1E161F06D5
:101550006CF337FF14C0FE01EF0DF11D8DE28183A6
:10156000F3940DC080E38983FF24F39408C0C8017D
:1015700060E249A30E94D10949A1415003C08601FC
:101580000E5D1F4FF41698F309C0FE01EF0DF11D1B
:10159000C80160810E94D109FA9403C086010E5DE2
:1015A0001F4FFF2091F78091C10080628093C1009E
:1015B000A1960FB6F894DEBF0FBECDBFCF91DF91DD
:1015C0001F910F91FF90EF90DF90CF90BF90AF9061
:1015D00008950F931F93DF93CF930F92CDB7DEB78C
:1015E0008C010E5D1F4FC80169830E94C10969818A
:1015F0008823C9F7C8010E94D1098091C100806287
:101600008093C1000F90CF91DF911F910F910895AA
:10161000EF92FF920F931F93DF93CF930F92CDB76B
:10162000DEB781E791E060E071E040E021E00E94F8
:10163000C30581E791E060E071E047E021E00E94AE
:10164000C30581E791E060E171E040E00E9482051E
:1016500081E791E061E171E041E00E94820581E76C
:1016600091E062E171E042E00E94820581E791E051
:1016700064E171E043E00E94820581E791E065E169
:1016800071E044E00E94820581E791E066E171E04B
:1016900045E00E948205A4E6EA2EF12C07E610E060
:1016A000E114F10409F069C09091F4018091F50111
:1016B0009817D1F780910402882369F50E948E045F
:1016C0007C0181E791E0B70140E020E00E94AD0994
:1016D00081E791E062E071E00E94AE0581E791E070
:1016E00060910F0140E00E94880782E791E06DE081
:1016F0000E94E90A82E791E0B70140E00E94EC090C
:1017000082E791E066E071E00E94540AF8EEEF2E65
:10171000F3E0FF2E35C081E791E060E040E00E94F9
:101720005D0520E0822F6091050229830E94EB0273
:101730007C01B8010E943F0C625E7E4F81E791E020
:10174000FB0160810E947D0582E791E0B70145E0E1
:101750000E946E0A29812F5F253021F782E791E0F0
:101760006AE00E94E90A81E791E06AE071E00E9484
:10177000AE05E4E6EE2EF12C03C00894E108F10872
:101780000E94E208882321F086EF91E00E941C0766
:101790000E94E907882309F083CF88EE93E00E9436
:1017A0007C017ECF0E945B0678940E94080BF8941F
:1017B0000E946A0680E090E00895E8E4F1E010926B
:1017C00048018091480180934A0180914A01DF01DC
:1017D00011978C93399782EE94E0918380831582E0
:1017E000148213821282109292011092930110922D
:1017F000F4011092F5011092F6011092F70108958C
:10180000629FD001739FF001829FE00DF11D649FE4
:10181000E00DF11D929FF00D839FF00D749FF00D70
:10182000659FF00D9927729FB00DE11DF91F639F11
:10183000B00DE11DF91FBD01CF0111240895991BC1
:1018400079E004C0991F961708F0961B881F7A95B7
:10185000C9F780950895AA1BBB1B51E107C0AA1FB9
:10186000BB1FA617B70710F0A61BB70B881F991F41
:101870005A95A9F780959095BC01CD01089597FBE5
:10188000092E07260AD077FD04D0E5DF06D0002018
:101890001AF4709561957F4F0895F6F790958195AC
:1018A0009F4F0895A1E21A2EAA1BBB1BFD010DC07C
:1018B000AA1FBB1FEE1FFF1FA217B307E407F50700
:1018C00020F0A21BB30BE40BF50B661F771F881FDC
:1018D000991F1A9469F760957095809590959B0172
:1018E000AC01BD01CF01089597FB092E05260ED04E
:1018F00057FD04D0D7DF0AD0001C38F4509540952E
:10190000309521953F4F4F4F5F4F0895F6F79095D3
:101910008095709561957F4F8F4F9F4F0895EE0F83
:0E192000FF1F0590F491E02D0994F894FFCF7D
:10192E0030006D562000206D760020202000010131
:10193E00000000000000001F1F1F1F1F1F1F2000A0
:10194E0000010203030405FF747E7A3300010203D3
:04195E000406070074
:00000001FF
